:1008DB00E4F50F7F381209CC7F0C1209CCC3E50E5F
:1008EB009410E50D94005008E50E2480FF1209CCFE
:1008FB00C3E50E9410E50D94004008E50E24B0FFFF
:10090B001209CCC3E50E9420E50D9400400A7F013B
:10091B001209CCE4F50DF50E1208008F0F1209C267
:09092B007F147E0012099680B4CD
:10080000E4FF7590FEAE90EE64EE700A7F31050E47
:10081000E50E7002050DAE90EE64DE700A7F3205C3
:100820000EE50E7002050DAE90EE64BE700A7F33C9
:10083000050EE50E7002050D7590FDAE90EE64EDAF
:10084000700A7F34050EE50E7002050DAE90EE6461
:10085000DD700A7F35050EE50E7002050DAE90EED7
:1008600064BD700A7F36050EE50E7002050D7590A9
:10087000FBAE90EE64EB700A7F37050EE50E70025A
:10088000050DAE90EE64DB700A7F38050EE50E7044
:1008900002050DAE90EE64BB700A7F39050EE50EC1
:1008A0007002050D7590F7AE90EE64E7700A7F2A2E
:1008B000050EE50E7002050DAE90EE64D7700A7F4E
:1008C00030050EE50E7002050DAE90EE64B7700AAD
:0A08D0007F23050EE50E7002050DF2
:0108DA0022FB
:060934008B088A09890A04
:10093A00E4F50BF50CF50BF50CAB08AA09A90A8529
:10094A000C82850B83120963FF600D1209C2050C24
:08095A00E50C70E5050B80E1DE
:010962002272
:0A09C2008FA0D2B0120990C2B1223A
:0A09CC008FA0C2B0120990C2B12240
:06099000D2B17F0A7E00D7
:10099600E4FDFCC3ED9FEC9E5015E4FAFB0BBB0097
:0F09A600010ABA03F8BBE8F50DBD00010C80E4AF
:0109B500221F
:030000000209B63C
:0C09B600787FE4F6D8FD75810F0208DBA5
:10096300BB010CE58229F582E5833AF583E0225049
:1009730006E92582F8E622BBFE06E92582F8E22293
:0D098300E58229F582E5833AF583E49322AD
:00000001FF
